:100000000C9434000C94C0000C9446000C944600F0
:100010000C9446000C9446000C9446000C94460048
:100020000C9446000C9446000C9446000C94460038
:100030000C9446000C9446000C9446000C94460028
:100040000C9446000C9446000C9446000C94460018
:100050000C9446000C9446000C9446000C94460008
:100060000C9446000C94460011241FBECFEFD8E03C
:10007000DEBFCDBF21E0A0E0B1E001C01D92A13004
:10008000B207E1F70E94AB000C94DE000C94000074
:10009000982F969596959695923039F0933041F039
:1000A000913049F4E4E2F0E008C0E7E2F0E005C096
:1000B000EAE2F0E002C0E0E0F0E0662371F0877071
:1000C00021E030E0A90102C0440F551F8A95E2F7F4
:1000D000CA019081892B80830895877021E030E0E8
:1000E000A90102C0440F551F8A95E2F7CA01809505
:1000F0009081892380830895982F9695969596955B
:10010000923039F0933041F0913049F4E5E2F0E07B
:1001100008C0E8E2F0E005C0EBE2F0E002C0E0E099
:10012000F0E0282F277081E090E002C0880F991F2F
:100130002A95E2F7908189278083089581E08DBB1D
:10014000109269001092680080936B0010926C000E
:1001500010926D00089578940E949E0060E088E0FF
:100160000E94480061E089E00E94480080910001FF
:100170008A30F1F789E00E947C0010920001F6CFEE
:100180001F920F920FB60F9211242F938F939F936C
:100190002FEF86E791E0215080409040E1F700C0CA
:1001A0000000809100018F5F809300019F918F91EB
:1001B0002F910F900FBE0F901F901895F894FFCFBE
:00000001FF
